:100000000C9434000C9451000C9451000C94510049
:100010000C9451000C9451000C9451000C9451001C
:100020000C9451000C9451000C9451000C94DE027D
:100030000C9451000C9451000C9451000C945100FC
:100040000C9451000C9451000C9451000C945100EC
:100050000C9451000C9451000C9451000C945100DC
:100060000C9451000C94510011241FBECFEFD8E026
:10007000DEBFCDBF12E0A0E0B1E0E8E7F6E102C0EC
:1000800005900D92AC34B107D9F728E0ACE4B2E0AA
:1000900001C01D92AB39B207E1F70E9421070C9411
:1000A0003A0B0C940000FC010396928381832FEF9E
:1000B0003FEF3483238396838583908787831082E1
:1000C0000895FC01118610860895CF93DF939C015B
:1000D000FB01DC011196CD91DC911297D383C28391
:1000E0008C819D81958384838C819D81DC01139615
:1000F0007C936E9312977D836C8331872087F901FF
:1001000080818F5F8083DF91CF910895CF93DF93BC
:10011000FC01A085B185C281D381848195819D83B5
:100120008C83C481D581828193819B838A8311963C
:100130008D919C911297E817F90731F4848195818C
:1001400012969C938E931197118610868C918150F4
:100150008C93DF91CF9108950F931F93CF93DF93EB
:10016000EC010E94420480914C0281111DC0E1E526
:10017000F2E086E592E09183808313821282EDE4BF
:10018000F2E08BED95E09383828311821082A5E5E6
:10019000B2E014969C938E9313971296FC93EE9371
:1001A000119781E080934C02209709F45FC09E0173
:1001B0002C5F3F4F2396CA3DD54008F05AC0E091CE
:1001C0005102F0915202A1E5B2E002C0DF01FC0150
:1001D000828193818217930720F480819181009717
:1001E000A9F7C2E0ED34FC0709F446C0CD91DC91DB
:1001F00011978E010C5F1F4F808191818D939C938D
:1002000082819381821B930B8930910510F1BF018C
:10021000620F731FDB0113969C938E9312973383A7
:10022000228312964D915C91139781E592E001C073
:10023000CD01EC01A881B98112962D913C911397C3
:1002400024173507A8F3EB01B983A883DC016D936C
:100250007C93809104019091050122813381821B5E
:10026000930B909305018093040108C000E010E017
:1002700005C000E010E002C000E010E00E940605AA
:10028000C801DF91CF911F910F9108950F931F9394
:10029000CF93DF93009741F1EC018C0104501109D9
:1002A0000E944204F80142815381A1E5B2E001C0FD
:1002B000DF01ED91FC9111972281338124173507DD
:1002C000B8F32497F983E8830D931C9320910401DC
:1002D000309105018A819B81820F931F90930501C4
:1002E000809304010E940605DF91CF911F910F9129
:1002F00008958091040190910501089531E1FC0178
:100300003083319722E220833197A3E3A083319792
:1003100060833197708331971082319760E86083F2
:1003200031971082319762E06083319763E0608398
:10033000319764E06083319765E06083319766E0D0
:100340006083319767E06083319768E0608331971D
:1003500069E06083319760E1608331973083319742
:1003600032E13083319733E13083319734E13083A8
:10037000319735E13083319736E13083319737E17A
:100380003083319738E13083319739E130833197C9
:1003900030E23083319731E23083319720833197D7
:1003A00023E220833197408331975083319726E2AF
:1003B0002083319727E22083319728E220833197E9
:1003C00029E22083319720E32083319721E32083A2
:1003D0008697089589EF90E0909389008093880034
:1003E000E0E8F0E080818C7F80838BE08093810067
:1003F000EFE6F0E0808182608083A0919508B09163
:100400009608CD91CDBFDD91DEBFFF91EF91DF91D9
:10041000CF91BF91AF919F918F917F916F915F919C
:100420004F913F912F911F910F91FF90EF90DF908F
:10043000CF90BF90AF909F908F907F906F905F9084
:100440004F903F902F901F900F900FBE0F900895E8
:1004500081E008950F920FB6F8940F921F92112425
:100460002F923F924F925F926F927F928F929F92C4
:10047000AF92BF92CF92DF92EF92FF920F931F93B2
:100480002F933F934F935F936F937F938F939F939C
:10049000AF93BF93CF93DF93EF93FF93A091950812
:1004A000B09196080DB60D920EB60D920E94B80549
:1004B000A0919508B0919608CD91CDBFDD91DEBF9A
:1004C000FF91EF91DF91CF91BF91AF919F918F916C
:1004D0007F916F915F914F913F912F911F910F915C
:1004E000FF90EF90DF90CF90BF90AF909F908F9054
:1004F0007F906F905F904F903F902F901F900F9044
:100500000FBE0F9008950F920FB6F8940F921F929E
:1005100011242F923F924F925F926F927F928F920F
:100520009F92AF92BF92CF92DF92EF92FF920F9382
:100530001F932F933F934F935F936F937F938F936B
:100540009F93AF93BF93CF93DF93EF93FF93A091CC
:100550009508B09196080DB60D920EB60D920E94B8
:100560004B040E94B805A0919508B0919608CD91D2
:10057000CDBFDD91DEBFFF91EF91DF91CF91BF91B4
:10058000AF919F918F917F916F915F914F913F912B
:100590002F911F910F91FF90EF90DF90CF90BF9020
:1005A000AF909F908F907F906F905F904F903F9013
:1005B0002F901F900F900FBE0F9008950E948302FE
:1005C0001895E0915D08F0915E088081811107C067
:1005D0008FEF9FEF90933508809334080895E09152
:1005E0005D08F0915E080580F681E02D0680F781B8
:1005F000E02D82819381909335088093340808958B
:100600004F925F926F927F928F929F92AF92BF9222
:10061000CF92DF92EF92FF920F93CF93DF934C0133
:100620006B015A012901CA010E94AC003C01892BCF
:1006300009F4EDC08AE290E00E94AC00EC01892B45
:10064000B1F0788E6F8AA50165EA70E0C3010E945F
:10065000E60781E0A81AB1088F89988DA80EB91E07
:10066000D6018C91898F8C91811105C018C0C3016E
:100670000E944601CCC0AE01465E5F4FF601319646
:10068000B8E0CB0ED11CCF012191DA012D93AD0141
:10069000DC018C91882319F0EC15FD05A1F718A257
:1006A000043008F003E00E8B6E01B2E0CB0ED11CDB
:1006B000C6010E946100CE010C960E946100D9879C
:1006C000C88784E090E0801B91099D878C87DB8B35
:1006D000CA8B1CA21BA21DA21EA21FA218A619A68D
:1006E000A201B401C5010E947E0199838883E114AF
:1006F000F10419F0F701D183C0830FB6F8940F927B
:1007000080913E088F5F80933E088091950890917C
:100710009608892BD1F5D0939608C09395088091BF
:100720003E08813009F041C081E798E00E94530003
:100730008AE798E00E94530083E898E00E94530003
:100740008CE898E00E94530088E698E00E945300ED
:100750008FE598E00E94530082E598E00E945300E4
:1007600089E498E00E9453008FE398E00E945300D0
:1007700088E698E090935E0880935D088FE598E0A6
:1007800090935C0880935B0810C080913A088111B7
:100790000CC0E0919508F091960896898E8989178A
:1007A00020F0D0939608C0939508809136088F5F0B
:1007B0008093360889A38E8990913B08981710F48E
:1007C00080933B0890E09C01220F331F220F331FC0
:1007D000220F331F820F931FB6018F58974F0E942D
:1007E00065000F900FBE80913A08882361F0E09178
:1007F0009508F091960896898E89981730F40E9492
:100800002A0281E005C081E003C081E001C08FEFD2
:10081000DF91CF910F91FF90EF90DF90CF90BF903D
:10082000AF909F908F907F906F905F904F900895C2
:10083000EF92FF920F930F2EF2E3EF2EF8E0FF2ED0
:10084000F02D00E020E030E045E550E066E071E0AA
:1008500085E895E00E940003813081F4F8948FEFE1
:100860009FEF909335088093340881E080933A0895
:1008700010923D0810923C080E94EA010F91FF90EF
:10088000EF900895809131088F5F8093310808952B
:1008900080913E080895CF92DF92EF92FF920F93DE
:1008A0001F93CF93DF9380913108811199C0E0901D
:1008B0003C08F0903D088FEFE81AF80AF0923D08E6
:1008C000E0923C08E114F104B9F480915D08909144
:1008D0005E0820915B0830915C0830935E0820939D
:1008E0005D0890935C0880935B08809137088F5F68
:1008F000809337080E94E102809134089091350876
:10090000E816F90610F4D12C53C0D12CCC24C39492
:10091000E0915D08F0915E088081811107C08FEF42
:100920009FEF909335088093340842C0E0915D08B2
:10093000F0915E080580F681E02DC681D7818A811D
:100940009B81E816F90628F49093350880933408C3
:100950002FC08E010E5F1F4FC8010E9486008C8938
:100960009D89892B21F0CE010C960E9486008E89EC
:1009700090913B08981710F480933B0890E09C01FD
:10098000220F331F220F331F220F331F820F931F9B
:10099000B8018F58974F0E946500E0919508F0913B
:1009A00096089E898689981708F4B2CFDC2CB0CFC0
:1009B000E0919508F0919608868990E0FC01EE0F91
:1009C000FF1FEE0FFF1FEE0FFF1F8E0F9F1FFC017B
:1009D000EF58F74F8081823048F0DD24D39406C071
:1009E000809139088F5F80933908D12C8091380825
:1009F000882311F0DD24D3948D2DDF91CF911F91A9
:100A00000F91FF90EF90DF90CF900895DF92EF92DB
:100A1000FF920F931F93CF93DF930FB6F8940F922B
:100A20008091310881508093310880913108811183
:100A30005FC080913E08811133C05DC0D70115961B
:100A4000ED91FC911697C681D781CE010C960E943C
:100A500086008E010E5F1F4FC8010E9486008E899E
:100A600090913B08981710F480933B0890E09C010C
:100A7000220F331F220F331F220F331F820F931FAA
:100A8000B8018F58974F0E946500E0919508F0914A
:100A900096089E898689981768F0D09238080AC00F
:100AA000C0E0D0E00F2EF2E5EF2EF8E0FF2EF02DA3
:100AB000DD24D394F70180818111C0CFCD2B11F0BB
:100AC0000E94E102C0913908CC2351F0D1E00E948C
:100AD0004B048111D0933808C150C9F710923908DE
:100AE00080913808882331F00E942A0281E003C0F7
:100AF00080E001C080E00F900FBEDF91CF911F9189
:100B00000F91FF90EF90DF90089509E418E029C05D
:100B10000E944204D801CC910E940605CC2309F121
:100B20000FB6F8940F92D8011596ED91FC91169797
:100B3000C681D781CE0102960E94860080913E0830
:100B4000815080933E0880914808815080934808E6
:100B50000F900FBE8F89988D0E944601CE010E9492
:100B60004601809148088111D3CF0E946107F9CFD7
:100B700080913108882321F081E08093380808951E
:100B80001092380820913B08822F90E0FC01EE0F74
:100B9000FF1FEE0FFF1FEE0FFF1FE80FF91FEF58AB
:100BA000F74F3081311111C02150822F90E0FC01AC
:100BB000EE0FFF1FEE0FFF1FEE0FFF1FE80FF91FD5
:100BC000EF58F74F3081332379F3AC01440F551FB1
:100BD000440F551F440F551F480F591FDA01AF58D6
:100BE000B74F1196ED91FC9112970280F381E02DA1
:100BF0001296FC93EE9311974C58574FE417F50754
:100C000029F442815381FD0152834183FC01EE0F9F
:100C1000FF1FEE0FFF1FEE0FFF1F8E0F9F1FFC0128
:100C2000EF58F74F0180F281E02D868197819093F4
:100C300096088093950820933B08089584B18F63AC
:100C400084B987B18F6387B98AB1806C8AB98AB158
:100C5000837C8AB90895181619066CF420E030E0F8
:100C6000EFE9FFE03197F1F700C000002F5F3F4F41
:100C700082179307A9F70895CF93DF9300D0CDB7DC
:100C8000DEB70F2EF4E6CF2ED12CF02D0E94D60722
:100C9000B6010E946207459784F41A821982CE0138
:100CA00001967C0101E020E030E045E550E06AE19A
:100CB00071E08CE396E00E94000384EF91E00E94D3
:100CC0002B06E4CF419A85ED8A95F1F70000419813
:100CD000089598B1937C98B984FD429A85FD439A12
:100CE00086FD449A88230CF4459A0E946206089572
:100CF000CF93C82F0E9469068C2F8295807F0E9417
:100D00006906CF9108951092C50087E68093C400CC
:100D100086E08093C20088E18093C1000895E0ECF2
:100D2000F0E0908195FFFDCF8093C6000895409834
:100D30000E9478060895CF93C82F409A0E947806A3
:100D40008C2F0E948F06CF91089583E30E9497060F
:100D500082E30E94970688E20E9497068CE00E9438
:100D6000970686E00E94970681E00E94970682E33C
:100D700090E00E942B06089581E00E9497068EE184
:100D800090E00E942B060895CF93DF93EC018881B9
:100D9000882331F021960E949B0689918111FBCF17
:100DA00082E390E00E942B06DF91CF9108950F938C
:100DB0001F93CF93DF93182F092F80E190E00E94BB
:100DC000AC00D82FC92F0F931F9388E292E09F9316
:100DD0008F93CF93DF930E94ED070F900F900F90AA
:100DE0000F900F900F908D2F9C2FDF91CF911F911F
:100DF0000F9108950E947901EC010E94BC06CE017A
:100E00000E94D706EC010E94C406CE010E94460152
:100E10000E944804C82F0E94BC068C2F90E00E94BC
:100E2000D706EC0182E291E00E94C406CE010E9446
:100E3000C406CE010E94460188E191E00E94C406EA
:100E4000D9CFEF92FF920F930E94830684EF91E037
:100E50000E942B060E941E0682E390E00E942B0651
:100E60000E94A5060E94BC0680ED97E00E942B061A
:100E70000F2EF9E9EF2EF8E0FF2EF02D01E020E033
:100E800030E045E550E06AE171E08CE396E00E94D5
:100E900000030F2EF7E9EF2EF8E0FF2EF02D20E0F3
:100EA00030E045E550E066E472E08AEF96E00E94AB
:100EB00000030E94180480E090E00F91FF90EF90F3
:100EC0000895089597FB072E16F4009407D077FD38
:100ED00009D00E94760707FC05D03EF490958195D5
:100EE0009F4F0895709561957F4F0895AA1BBB1B76
:100EF00051E107C0AA1FBB1FA617B70710F0A61B1A
:100F0000B70B881F991F5A95A9F780959095BC013A
:100F1000CD0108958F929F92AF92BF92CF92DF92B0
:100F2000EF92FF92CF93DF93EC01688179818A8100
:100F30009B81611571058105910521F464E279EDCC
:100F40008BE597E02DE133EF41E050E00E94A00AED
:100F500049015A019B01AC01A7EAB1E40E94BF0A12
:100F60006B017C01ACEEB4EFA50194010E94CD0AA7
:100F7000DC01CB018C0D9D1DAE1DBF1DB7FF03C055
:100F80000197A109B04888839983AA83BB839F777F
:100F9000DF91CF91FF90EF90DF90CF90BF90AF9017
:100FA0009F908F9008950E948A07089580E091E0B5
:100FB0000E948A070895A0E0B0E08093000190931A
:100FC0000101A0930201B09303010895DC0101C067
:100FD0006D9341505040E0F70895AEE0B0E0E3EF8C
:100FE000F7E00C94E00A0D891E8986E08C831A8351
:100FF00009838FEF9FE79E838D83AE01475E5F4F2E
:101000006F89788DCE0101960E940F08EF81F885D7
:10101000E00FF11F10822E96E4E00C94FC0AABE086
:10102000B0E0E5E1F8E00C94D20A6C017B018A01A2
:10103000FC0117821682838181FFCCC1CE0101960B
:101040003C01F6019381F70193FD859193FF819116
:101050007F01882309F4BAC1853239F493FD859163
:1010600093FF81917F01853229F4B60190E00E94BF
:10107000060AE7CF912C212C312CFFE1F315D8F093
:101080008B3279F038F4803279F08332A1F4232D59
:1010900020611DC08D3261F0803369F4232D216001
:1010A00016C0832D8260382EE32DE4603E2E2AC0C8
:1010B000F32DF8601DC037FC2DC020ED280F2A301D
:1010C00040F08E32B9F436FC81C1232D2064322EDB
:1010D00019C036FE06C08AE0989E200D1124922E7B
:1010E00011C0EAE02E9E200D1124222EF32DF06275
:1010F0003F2E08C08C3621F4832D8068382E02C024
:10110000883641F4F70193FD859193FF81917F012A
:101110008111B3CF982F9F7D9554933028F40C5FA5
:101120001F4F9FE399830DC0833631F0833771F0F1
:10113000833509F059C021C0F801808189830E5F91
:101140001F4F88248394912C530113C02801F2E08F
:101150004F0E511CF801A080B18036FE03C0692DEE
:1011600070E002C06FEF7FEFC5010E94FB094C01E8
:101170008201F32DFF773F2E16C0280122E0420E98
:10118000511CF801A080B18036FE03C0692D70E0CB
:1011900002C06FEF7FEFC5010E94F0094C01F32DF3
:1011A000F0683F2E820133FC1BC0822D90E0881630
:1011B0009906B0F4B60180E290E00E94060A2A94F3
:1011C000F4CFF50137FC859137FE81915F01B601BF
:1011D00090E00E94060A21102A9421E0821A9108C8
:1011E0008114910471F7E8C0843611F0893641F515
:1011F000F80137FE07C060817181828193810C5FA5
:101200001F4F08C060817181072E000C880B990B5D
:101210000E5F1F4FF32DFF763F2E97FF09C090956D
:101220008095709561957F4F8F4F9F4FF0683F2E4F
:101230002AE030E0A3010E94420A882E861845C0A9
:10124000853731F4232D2F7EB22E2AE030E025C0E1
:10125000932D997FB92E8F36C1F018F4883579F027
:10126000B5C0803719F0883721F0B0C0E92FE061B0
:10127000BE2EB4FE0DC0FB2DF460BF2E09C034FE9F
:101280000AC0292F2660B22E06C028E030E005C033
:1012900020E130E002C020E132E0F801B7FE07C0F3
:1012A00060817181828193810C5F1F4F06C06081D4
:1012B000718180E090E00E5F1F4FA3010E94420AFF
:1012C000882E8618FB2DFF773F2E36FE0DC0232D6E
:1012D0002E7FA22E891458F434FE0BC032FC09C0B4
:1012E000832D8E7EA82E05C0B82CA32C03C0B82C4D
:1012F00001C0B92CA4FE0FC0FE01E80DF11D8081D4
:10130000803321F49A2D997EA92E09C0A2FE06C031
:10131000B394B39404C08A2D867809F0B394A3FCE7
:1013200011C0A0FE06C0B21488F4280C922C9B18A1
:101330000EC0B21460F4B60180E290E00E94060A8A
:10134000B394F7CFB21418F42B1802C0982C212CA8
:10135000A4FE10C0B60180E390E00E94060AA2FE3F
:1013600017C0A1FC03C088E790E002C088E590E0C8
:10137000B6010CC08A2D867859F0A1FE02C08BE21E
:1013800001C080E2A7FC8DE2B60190E00E94060A4F
:10139000891438F4B60180E390E00E94060A9A941A
:1013A000F7CF8A94F301E80DF11D8081B60190E03A
:1013B0000E94060A8110F5CF222009F442CEB60120
:1013C00080E290E00E94060A2A94F6CFF601868118
:1013D000978102C08FEF9FEF2B96E2E10C94EE0A0B
:1013E000FC010590615070400110D8F780959095F0
:1013F0008E0F9F1F0895FC016150704001900110F5
:10140000D8F7809590958E0F9F1F08950F931F9387
:10141000CF93DF93FB01238121FD03C08FEF9FEF6B
:101420002CC022FF16C04681578124813581421786
:10143000530744F4A081B1819D012F5F3F4F318359
:1014400020838C93268137812F5F3F4F37832683FC
:1014500014C08B01EC01FB010084F185E02D09959E
:10146000892BE1F6D80116968D919C9117970196DC
:1014700017969C938E931697CE01DF91CF911F9173
:101480000F910895FA01AA27283051F1203181F1F6
:10149000E8946F936E7F6E5F7F4F8F4F9F4FAF4F7C
:1014A000B1E03ED0B4E03CD0670F781F891F9A1F8F
:1014B000A11D680F791F8A1F911DA11D6A0F711D43
:1014C000811D911DA11D20D009F468943F912AE04F
:1014D000269F11243019305D3193DEF6CF01089537
:1014E000462F4770405D4193B3E00FD0C9F7F6CF68
:1014F000462F4F70405D4A3318F0495D31FD405230
:10150000419302D0A9F7EACFB4E0A69597958795C5
:1015100077956795BA95C9F70097610571050895A4
:101520009B01AC010A2E0694579547953795279550
:10153000BA95C9F7620F731F841F951FA01D0895E8
:10154000052E97FB1EF400940E94B70A57FD07D0A2
:101550000E94090B07FC03D04EF40C94B70A509577
:101560004095309521953F4F4F4F5F4F089590958F
:101570008095709561957F4F8F4F9F4F08950E9482
:101580002B0BA59F900DB49F900DA49F800D911DD6
:1015900011240895B7FF0C94BF0A0E94BF0A821B52
:1015A000930B08952F923F924F925F926F927F928A
:1015B0008F929F92AF92BF92CF92DF92EF92FF9263
:1015C0000F931F93CF93DF93CDB7DEB7CA1BDB0B0F
:1015D0000FB6F894DEBF0FBECDBF09942A883988B4
:1015E00048885F846E847D848C849B84AA84B984BB
:1015F000C884DF80EE80FD800C811B81AA81B981C7
:10160000CE0FD11D0FB6F894DEBF0FBECDBFED01DA
:101610000895A1E21A2EAA1BBB1BFD010DC0AA1F33
:10162000BB1FEE1FFF1FA217B307E407F50720F04B
:10163000A21BB30BE40BF50B661F771F881F991FC6
:101640001A9469F760957095809590959B01AC010F
:10165000BD01CF010895A29FB001B39FC001A39F18
:10166000700D811D1124911DB29F700D811D1124DB
:08167000911D0895F894FFCFCD
:1016780001000000DB0549444C45000925630925A4
:10168800750925750925750D0A004D616C50726F35
:101698006700200050726573732027412720746FFC
:1016A8002063726561746520526564204C4544204E
:1016B8007461736B2C2027312720746F2064656C4C
:1016C8006574652069742E00507265737320274213
:1016D8002720746F20637265617465205768697488
:1016E80065204C4544207461736B2C2027322720D9
:1016F800746F2064656C6574652069742E0050727F
:101708006573732027432720746F206372656174A3
:101718006520426C7565204C4544207461736B2CC0
:101728002027332720746F2064656C6574652069F1
:10173800742E00526564007461736B20616C72656D
:101748006164792072756E6E696E672E00576869DC
:10175800746500426C7565007461736B206E6F74FC
:101768002072756E6E696E672E007461736B2063EC
:101778007265617465642E007461736B2064656CB6
:10178800657465642E004E756D626572206F662003
:101798005461736B73203D20256400467265652093
:1017A80048656170203D20307825780A004B6579BE
:0C17B800203D2025630053746174730011
:00000001FF
